:100000000C9446000C9465000C9465000C946500FB
:100010000C9465000C9415010C9485010C94F60168
:100020000C9465000C9465000C9465000C946500BC
:100030000C9465000C9465000C9465000C946500AC
:100040000C94A0000C9465000C9467000C9465005F
:100050000C9465000C9465000C9465000C9465008C
:100060000C9465000C9465000C9465000C9465007C
:100070000C9465000C9465000C9465000C9465006C
:100080000C9465000C9465000C94650011241FBE4F
:10009000CFEFD0E1DEBFCDBF11E0A0E0B1E0EAE2FA
:1000A000F2E100E00BBF02C007900D92A03CB10747
:1000B000D9F712E0A0ECB1E001C01D92A930B10760
:1000C000E1F70E94CD020C9413090C9400001F92DA
:1000D0000F920FB60F920BB60F9211248F939F932E
:1000E000EF93FF938CB18093EF018091EF018E32FB
:1000F00079F080910602E82FF0E09091EF01E05155
:10010000FE4F90838F5F80930602109204020DC011
:100110008091EF018E3249F48091060280930502AE
:100120001092060281E080930402FF91EF919F916B
:100130008F910F900BBE0F900FBE0F901F901895D0
:100140001F920F920FB60F9211242F933F938F930C
:100150009F9384E682BF8091ED019091EE0101961C
:100160009093EE018093ED010A9709F055C010922B
:10017000EE011092ED018091EB019091EC0101965E
:100180009093EC018093EB018091EB019091EC0155
:10019000049731F481E090E09093EC018093EB01BF
:1001A0008091EB019091EC01019769F4C09A84E190
:1001B00090E035E0232F2A95F1F70197D9F7C09801
:1001C00081E090E025C08091EB019091EC010297D5
:1001D00069F4C19A84E190E035E0232F2A95F1F784
:1001E0000197D9F7C19882E090E012C08091EB01AD
:1001F0009091EC01039781F4C29A84E190E035E09C
:10020000232F2A95F1F70197D9F7C29883E090E060
:100210009093CC018093CB019F918F913F912F912F
:100220000F900FBE0F901F9018951F920F920FB650
:100230000F9211242F933F935F936F937F938F932C
:100240009F93AF93BF932091CB013091CC0121308C
:10025000310509F04CC08091E3019091E401892BB4
:1002600069F480918800909189009093EA018093CD
:10027000E9013093E4012093E30139C080918800C3
:10028000909189009093E8018093E7012091E90122
:100290003091EA01821B930B9093E6018093E50174
:1002A00064E770E00E94EC08709351016093500184
:1002B00080915001909151018D57914040F0809173
:1002C000E1019091E201909351018093500180915E
:1002D0005001909151019093E2018093E1011092BD
:1002E000E4011092E3011092CC011092CB01BF9176
:1002F000AF919F918F917F916F915F913F912F91DE
:100300000F900FBE0F901F9018951F920F920FB66F
:100310000F9211242F933F935F936F937F938F934B
:100320009F93AF93BF938091CB019091CC010297A3
:1003300009F04EC08091D9019091DA01892B79F4AE
:1003400080918800909189009093E0018093DF0173
:1003500081E090E09093DA018093D90139C08091D7
:100360008800909189009093DE018093DD012091B7
:10037000DF013091E001821B930B9093DC018093AD
:10038000DB0164E770E00E94EC0870934F0160931A
:100390004E0180914E0190914F018D57914040F058
:1003A0008091D7019091D80190934F0180934E0195
:1003B00080914E0190914F019093D8018093D70185
:1003C0001092DA011092D9011092CC011092CB0157
:1003D000BF91AF919F918F917F916F915F913F916D
:1003E0002F910F900FBE0F901F9018951F920F9294
:1003F0000FB60F9211242F933F935F936F937F93C8
:100400008F939F93AF93BF938091CB019091CC0139
:10041000039709F04EC08091CF019091D001892BB4
:1004200079F480918800909189009093D60180930F
:10043000D50181E090E09093D0018093CF0139C045
:1004400080918800909189009093D4018093D3018A
:100450002091D5013091D601821B930B9093D2014C
:100460008093D10164E770E00E94EC0870934D0125
:1004700060934C0180914C0190914D018D579140BA
:1004800040F08091CD019091CE0190934D018093E9
:100490004C0180914C0190914D019093CE0180933D
:1004A000CD011092D0011092CF011092CC01109288
:1004B000CB01BF91AF919F918F917F916F915F9190
:1004C0003F912F910F900FBE0F901F90189527E826
:1004D00030E0AC01429FC001439F900D529F900DB0
:1004E000112464E873E00E940009665F63BD08950B
:1004F0001BB888E18AB986E080939500109290003D
:1005000087E689B908959C018091C9019091CA013B
:100510008217930724F42091C9013091CA01D89819
:100520003BBD2ABD0895D8981BBC1ABC08955D9B9D
:10053000FECF8CB90895FC0104C05D9BFECF3196BF
:100540008CB980818823C9F708950F931F93CF93A7
:10055000DF939C018B011092C4011092C50110928F
:10056000C6011092C7011092C801C0E0D0E0C901D5
:10057000B8010E94EC08FE01EC53FE4F80832196E7
:10058000C901B8010E94EC089B016115710579F75A
:10059000DF91CF911F910F9108954F925F926F92CB
:1005A0007F928F929F92AF92BF92CF92DF92EF9203
:1005B000FF920F931F93CF93DF938AB380678ABB19
:1005C0008BB380678BBBBF9A85B5886685BD85B5C3
:1005D000856085BD809152019091530190930802EE
:1005E0008093070280910702909108020E9467029F
:1005F0001BB888E18AB986E080939500109290003C
:1006000087E689B9579ABD9AD09AD89882E88FBD63
:100610008BE18EBD82E390E097BD86BD86B597B530
:100620009093CA018093C9011BBC1ABC87B3876031
:1006300087BB88B3887F88BB13BE84E682BF87B739
:100640008E7F87BF10928B0082E080938A008AB7EA
:1006500085618ABF8AB7857D8ABF89B78F7889BF50
:10066000789483B7876083BFC4E1D0E0882499245D
:100670000AE510E03AE0A32E24E6422E512C90EA3F
:10068000692E9FE0792E80910402813009F040C2EA
:1006900030E040E050E060E070E0FF24EE24DD2434
:1006A000CC24BB2420E070C0A22FB0E0FD01E051BB
:1006B000FE4F9081FD01EC5AFE4F8081981709F49E
:1006C0003F5FFD01E051FE4F9081FD01E75AFE4F73
:1006D0008081981709F44F5FFD01E051FE4F908132
:1006E000FD01E15AFE4F8081981709F45F5FFD011B
:1006F000E051FE4F9081FD01E859FE4F808198172F
:1007000009F46F5FFD01E051FE4F9081FD01E0595A
:10071000FE4F8081981709F47F5FFD01E051FE4F85
:100720009081FD01E558FE4F8081981709F4F394FC
:10073000FD01E051FE4F9081FD01E258FE4F8081A6
:10074000981709F4E394FD01E051FE4F9081FD01FB
:10075000E557FE4F8081981709F4D394FD01E051CD
:10076000FE4F9081FD01E756FE4F8081981709F4F6
:10077000C394FD01E051FE4F9081A855BE4F8C916E
:10078000981709F4B3942F5F80910502281708F495
:100790008BCF343011F480E02AC0453011F481E071
:1007A00026C0583011F482E022C0673011F483E093
:1007B0001EC07A3011F484E01AC082E0F81611F4F9
:1007C00085E015C08CE0E81611F486E010C08DE0DD
:1007D000D81611F487E00BC08EE0C81611F488E03B
:1007E00006C08FE0B81611F08EEF01C089E01092BC
:1007F0000402882371F587B78E7F87BF89B78F780A
:1008000089BF8BB380678BBB80E091E00E949B0225
:100810005D9BFECFACB85092510140925001509276
:100820004F0140924E0150924D0140924C01D89898
:100830001BBC1ABC80915201909153019093080205
:100840008093070280910702909108020E9467023C
:1008500012C0813099F4D8981BBC1ABC87B781604C
:1008600087BF89B7806789BF89E091E00E949B02BA
:100870005D9BFECFACB8882499244AC1823039F5FB
:10088000DC98DD9ADE9A84E190E06AE070E00E94F4
:10089000A50283E191E00E949B028091C5018A300C
:1008A00010F4805D01C0895C5D9BFECF8CB98091A6
:1008B000C4018A3010F4805D01C0895C5D9BFECF6D
:1008C0008CB95D9BFECFACB8C4E1D0E021C18330D0
:1008D00039F5DC98DD98DE9A8EE190E06AE070E010
:1008E0000E94A50283E191E00E949B028091C501D4
:1008F0008A3010F4805D01C0895C5D9BFECF8CB9AD
:100900008091C4018A3010F4805D01C0895C5D9BD8
:10091000FECF8CB95D9BFECFACB8CEE1D0E0F8C085
:10092000843039F5DC98DD98DE9882E390E06AE067
:1009300070E00E94A50283E191E00E949B028091F9
:10094000C5018A3010F4805D01C0895C5D9BFECFDB
:100950008CB98091C4018A3010F4805D01C0895C3B
:100960005D9BFECF8CB95D9BFECFACB8C2E3D0E0FF
:10097000CFC08530B9F58091F2019091F301805399
:100980008A9DE00111249053C90FD11DC333D105B5
:1009900028F08091F2018053C82FD0E0C531D105F5
:1009A00018F4DC98DD9A05C0C432D10520F4DC9837
:1009B000DD98DE9A06C0C333D10518F4DC98DD98C3
:1009C000DE9883E191E00E949B028091F2015D9BA1
:1009D000FECF8CB98091F3015D9BFECF8CB95D9BFE
:1009E000FECF8EC0863039F48AE191E00E949B02EE
:1009F0005D9BFECF3FCF873059F483E291E00E94A8
:100A00009B025D9BFECFACB881E0882E912C80C00C
:100A10008830D1F50A50104017FF02C000E010E006
:100A20001093080200930702809107029091080238
:100A30000E946702C8016AE070E00E94A5028EE28F
:100A400091E00E949B028091C6018A3010F4805D83
:100A500001C0895C5D9BFECF8CB98091C5018A3055
:100A600010F4805D01C0895C5D9BFECF8CB98091E4
:100A7000C4018A3010F4805D01C0895C5D9BFECFAB
:100A80008CB95D9BFECF3CC08930E1F5065F1F4FFE
:100A9000053B110514F004EB10E0C8016AE070E0BA
:100AA0000E94A5021093080200930702809107029A
:100AB000909108020E9467028EE291E00E949B02E0
:100AC0008091C6018A3010F4805D01C0895C5D9B15
:100AD000FECF8CB98091C5018A3010F4805D01C0D1
:100AE000895C5D9BFECF8CB98091C4018A3010F483
:100AF000805D01C0895C5D9BFECF8CB95D9BFECFA4
:100B0000ACB806C08E3F21F486E391E00E949B02C0
:100B1000F8944091500150915101509347014093F6
:100B2000460160914E0170914F01709349016093AD
:100B30004801E0914C01F0914D01F0934B01E0939D
:100B40004A0178948091B8019091B9018417950772
:100B500070F48091B8019091B9018617970738F425
:100B60008091B8019091B9018E179F0780F09E0186
:100B70008091C9019091CA018C179D0724F420919E
:100B8000C9013091CA01D8983BBD2ABD03C0D8988D
:100B90001BBC1ABC8114910409F075CD8091B80179
:100BA0009091B9018417950708F4ADC08091B80100
:100BB0009091B9018617970708F4A5C08091B801F4
:100BC0009091B9018E179F0708F49DC08091C001D4
:100BD0009091C101009729F48091BA019091BB01D5
:100BE00006C0019759F5809152019091530190935D
:100BF00008028093070280910702909108020E94E8
:100C000067022091BC013091BD018091C201909199
:100C1000C30101969093C3018093C2018217930789
:100C200068F01092C3011092C2018091C0019091AE
:100C3000C10101969093C1018093C0018091C001D0
:100C40009091C101029759F58091BE019091BF0129
:100C50009093080280930702809107029091080206
:100C60000E9467022091BC013091BD018091C201B8
:100C70009091C30101969093C3018093C2018217A2
:100C8000930768F01092C3011092C2018091C001D5
:100C90009091C10101969093C1018093C001809110
:100CA000C0019091C101039731F58091520190915B
:100CB000530190930802809307028091070290915C
:100CC00008020E9467022091BC013091BD01809111
:100CD000C2019091C30101969093C3018093C20118
:100CE0008217930740F01092C3011092C201109234
:100CF000C1011092C00182E390E0F3013197F1F756
:100D00000197D9F7C0CC8091B8019091B9018617AD
:100D1000970708F46DC08091B8019091B9018E17C2
:100D20009F0708F465C08091C0019091C101892B93
:100D300059F58091BE019091BF0190930802809374
:100D4000070280910702909108020E946702209199
:100D5000BC013091BD018091C2019091C301019607
:100D60009093C3018093C2018217930768F0109299
:100D7000C3011092C2018091C0019091C1010196FE
:100D80009093C1018093C0018091C0019091C101F5
:100D9000892B31F180915201909153019093080277
:100DA0008093070280910702909108020E946702D7
:100DB0002091BC013091BD018091C2019091C3018D
:100DC00001969093C3018093C2018217930740F06C
:100DD0001092C3011092C2011092C1011092C00181
:100DE00082E390E0F3013197F1F70197D9F74BCC0B
:100DF0008091B8019091B9018417950708F46DC0EE
:100E00008091B8019091B9018617970708F465C0E1
:100E10008091C0019091C101892B59F58091BA014F
:100E20009091BB0190930802809307028091070282
:100E3000909108020E9467022091BC013091BD018F
:100E40008091C2019091C30101969093C301809358
:100E5000C2018217930768F01092C3011092C20179
:100E60008091C0019091C10101969093C10180933E
:100E7000C0018091C0019091C101892B31F1809115
:100E80005201909153019093080280930702809140
:100E90000702909108020E9467022091BC013091E4
:100EA000BD018091C2019091C30101969093C3014D
:100EB0008093C2018217930740F01092C3011092F1
:100EC000C2011092C1011092C00182E390E0F301CF
:100ED0003197F1F70197D9F7D6CB8091B80190916E
:100EE000B9018417950708F46DC08091B8019091FD
:100EF000B9018E179F0708F465C08091C0019091D9
:100F0000C101892B59F58091BA019091BB01909351
:100F100008028093070280910702909108020E94C4
:100F200067022091BC013091BD018091C201909176
:100F3000C30101969093C3018093C2018217930766
:100F400068F01092C3011092C2018091C00190918B
:100F5000C10101969093C1018093C0018091C001AD
:100F60009091C101892B31F18091BE019091BF0117
:100F700090930802809307028091070290910802E3
:100F80000E9467022091BC013091BD018091C20195
:100F90009091C30101969093C3018093C20182177F
:100FA000930740F01092C3011092C2011092C10148
:100FB0001092C00182E390E0F3013197F1F70197BD
:100FC000D9F761CB8091B8019091B9018417950749
:100FD00028F08091BA019091BB0118C08091B801AE
:100FE0009091B9018617970728F08091520190914E
:100FF00053010CC08091B8019091B9018E179F07E1
:1010000008F441CB8091BE019091BF0190930802FA
:101010008093070280910702909108020E94670264
:1010200032CB8A3010F4805D0895895C0895805336
:10103000089520EA3FE004C0F9013197F1F70197E4
:1010400018161906CCF3089535E004C0232F2A950D
:10105000F1F7019718161906CCF308952091C201F3
:101060003091C3012F5F3F4F3093C3012093C201E2
:101070002817390710F480E008951092C3011092E8
:10108000C20181E0089595E3292F2A95F1F7292FD0
:101090002A95F1F7292F2A95F1F7292F2A95F1F7AB
:1010A0009A95F1F7982F907F956095BB9B7F95BBA4
:1010B0008295807F856085BB8B7F85BB0895CF93AC
:1010C000DF93EC0103C00E944308219688818823A6
:1010D000D1F7DF91CF910895982F907F946095BBC1
:1010E0009B7F95BB8295807F846085BB8B7F85BB12
:1010F00085E08A95F1F708951F93182F85E3982FBF
:101100009A95F1F7982F9A95F1F7982F9A95F1F70C
:10111000982F9A95F1F78A95F1F7812F0E946C0824
:101120001150123020F480E49FE10197F1F71F91F4
:1011300008950F931F93CF93DF938B01880F880F30
:10114000880F80640E947C08C0E0D0E0F801EC0FBA
:10115000FD1F80810E9443082196C830D105B1F758
:10116000DF91CF911F910F910895882349F081302D
:1011700011F4605C05C0823011F4605F01C0605BF7
:10118000862F80680E947C0808958FEF84BB80E6DC
:101190009AEE0197F1F780E30E946C0880E29EE4EA
:1011A0000197F1F780E30E946C0880EA9FE00197C5
:1011B000F1F782E30E946C0888E20E947C0888E0D4
:1011C0000E947C0881E00E947C0886E00E947C08E6
:1011D0008CE00E947C080895AA1BBB1B51E107C04C
:1011E000AA1FBB1FA617B70710F0A61BB70B881FB7
:1011F000991F5A95A9F780959095BC01CD01089546
:1012000097FB092E07260AD077FD04D0E5DF06D02C
:1012100000201AF4709561957F4F0895F6F7909528
:0A12200081959F4F0895F894FFCFC9
:10122A0046616E2053746F700046616E205374617C
:10123A00727400647574793D200053766F2061756D
:10124A00746F0053766F206D616E75616C00736503
:10125A0072766F3D2000436F6D6D616E642045723A
:10126A00726F72210A006400640064003200320066
:10127A0032005A0073746F70007374617274007074
:10128A00776D5F7765656B0070776D5F6D69640078
:10129A0070776D5F7374726F6E6700643D0073657B
:1012AA0072766F6D6F746F725F6100736572766FBD
:1012BA006D6F746F725F6D6100736572766F6D6FBB
:1012CA00746F725F72636F00736572766F6D6F749D
:1012DA006F725F6C656674001E007D0096002D00BB
:00000001FF
